:020000040000FA
:060000000A128A110C280F
:10000800FE00030EF0000A08F1000A128A11A42A61
:100018000A128A110F28FA01FB0183120313B20195
:10002800B301B401B50183010A128A115F2A831250
:100038000313AB00A61B21282328013024280030F5
:10004800A8002808AD002D0803192B282C283228D1
:10005800A509A609A50A0319A60A32282408A80092
:100068002808F5002B080A128A119B230A128A1104
:10007800103083120313AE002730AF000530A800FC
:100088002808AC007628831203132F08F3002E08E3
:10009800F2002608F5002508F4000A128A118921C1
:1000A8000A128A1172087304031D5B285C289028C1
:1000B800013083120313AC02622890280A30F20040
:1000C8000030F3002F08F5002E08F4000A128A11F8
:1000D80089210A128A11730883120313AF00720868
:1000E800AE0076282F08803AFF0080307F02031D7B
:1000F8007F2801302E020318822883284728902859
:10010800902820300A128A1113230A128A1101300A
:1001180083120313A7029028831203132C082D07B8
:10012800A800A901A90D2908803AAA0080302A024E
:10013800031DA028270828020318A328A428AE28EE
:1001480002308312031327020318AB28AC28852832
:10015800AE28AE28831203132D080319B428B52836
:10016800BC282D300A128A1113230A128A11BC28BE
:10017800831203132F08F3002E08F2002608F50057
:100188002508F4000A128A1189210A128A117208B4
:10019800303E0A128A1113230A128A11831203139A
:1001A8002F08F3002E08F2002608F5002508F400B1
:1001B8000A128A11FC210A128A1173088312031386
:1001C800A6007208A5000A30F2000030F3002F08DC
:1001D800F5002E08F4000A128A1189210A128A11E0
:1001E800730883120313AF007208AE002F08803A19
:1001F800FF0080307F02031D032901302E020318FF
:1002080006290729BC2808290800F40083120313CB
:1002180008117408F20004300310F20CFF3E031DAD
:1002280010297208F300F30E080873060F397306D5
:100238008800881174030319222923292A290230E6
:100248007406031D2829292934292A290330F30093
:100258009730F200F20B2E29F30B2E293329392976
:100268000D30F200F20B3629392983120313881551
:10027800F0307405F20020307206031D4429452928
:100288005F2908117408F20004300310F20CFF3ED5
:10029800031D49297208F300F30E080873060F3985
:1002A8007306880088110D30F200F20B5929831269
:1002B800031388155F29081174080F39F200F20E2C
:1002C800080872060F39720688008811740303192A
:1002D8006E296F29762902307406031D7429752941
:1002E800802976290330F3009730F200F20B7A293F
:1002F800F30B7A297F2985290D30F200F20B822928
:100308008529831203138815080083120313A1019A
:10031800F31F8F2990299829F209F309F20A031982
:10032800F30AA101A10A9829F51F9B299C29A6294E
:10033800F409F509F40A0319F50A0130F6007608FC
:10034800A106A629A201A301720873040319AD2905
:10035800AE29EB29A001A00ABD2901300310F20D36
:10036800F30DFF3E031DB2290130F6007608A00701
:10037800BD29F31FC029C129B129C329C3290130C7
:100388000310A20DA30DFF3E031DC42973087502B7
:10039800031DD02972087402031CD329D429DC292F
:1003A8007208F4027308031CF503F5022214DC2911
:1003B80001300310F30CF20CFF3E031DDD29013060
:1003C800A002031DE829E929C329EB29EB29210803
:1003D8000319EF29F029F629A209A309A20A03198A
:1003E800A30AF6292308F3002208F200FB290800D3
:1003F800F801F51F002A012A092AF409F509F40A67
:100408000319F50AF801F80A092AF31F0C2A0D2A1C
:10041800132AF209F309F20A0319F30A132A7208D4
:1004280073040319182A192A4E2AF701F70A282AE9
:1004380001300310F20DF30DFF3E031D1D2A01309C
:10044800F6007608F707282AF31F2B2A2C2A1C2ADD
:100458002E2A2E2A73087502031D342A7208740284
:10046800031C372A382A3F2A7208F4027308031C2F
:10047800F503F5023F2A01300310F30CF20CFF3E9E
:10048800031D402A0130F702031D4B2A4C2A2E2A4D
:100498004E2A4E2A78080319522A532A592AF4094F
:1004A800F509F40A0319F50A592A7508F3007408BE
:1004B800F2005E2A08000A128A1142230A128A11DF
:1004C8000A128A1166230A128A11F801013083126E
:1004D8000313B0003008F90000300A128A11DC2238
:1004E8000A128A11772A093083120313B0003008E0
:1004F800A4003308A6003208A5000530B100310871
:10050800A70000300A128A111B200A128A1109302A
:1005180083120313B0003008A4003508A60034087D
:10052800A5000530B1003108A70001300A128A1170
:100538001B200A128A11772A772A0A128A110C2894
:100548008B13831203138C1CAA2AAB2AD42A8C106F
:100558000130FA070318FB0A0030FB077A087B040E
:10056800031DB72AB82AC32A0130B2070318B30AF1
:100578000030B3071030FA002730FB00C32A0B30D5
:1005880032063304031DC92ACA2AD42A0130B40703
:100598000318B50A0030B507B201B301D42AD42A2A
:1005A8008B1771088A00700E8300FE0E7E0E0900FC
:1005B80083120313A2007808A0002008A10078087D
:1005C800A0002008F50022080A128A119B230A12AB
:1005D8008A11052B790884000A128A1183230A12CA
:1005E8008A110A128A1113230A128A1101308312FE
:1005F8000313A0002008F9070130A0002008A10774
:10060800052B790884000A128A1183230A128A1199
:10061800003A031D102B112BEE2A122B0800F400B0
:100628008312031308157408F20004300310F20C47
:10063800FF3E031D1A2B7208F300F30E0808730619
:100648000F397306880088110D30F200F20B2A2B3F
:10065800831203138815081574080F39F200F20E77
:10066800080872060F397206880088110D30F200EA
:10067800F20B3C2B8312031388150800831603130F
:10068800081188110812881208138813831203139B
:10069800881528300A128A1109210A128A110C3089
:1006A8000A128A1109210A128A1101300A128A11C2
:1006B80009210A128A1102300A128A1109210A1222
:1006C8008A1108008B13FC308312031392058730BC
:1006D8009205910164308316031392008312031369
:1006E800B201B3010130FA000030FB00B401B501DA
:1006F80012150B17831603138C148B17080003307D
:100708008A000408840A8207003443346F346E3444
:100718007434613464346F3472343A34203420349D
:100728002034203420342034203420340034F7009E
:100738007708F60006300310F60DFF3E031D9F2BC9
:10074800750876077F39803E0A128A1109210A1234
:040758008A110800FA
:04400E00D4E0FFFFFC
:00000001FF
