:020000040000FA
:060000000A128A110C280F
:10000800FE00030EF0000A08F1000A128A116D2D95
:100018000A128A110F28FA01FB0183120313BA018D
:10002800BB0183010A128A11192883120313B8012C
:10003800B9010130B6000030B700B401B501B20112
:10004800B3010A128A1197250A128A110A128A1113
:10005800E5250A128A1177297729F80101308312D8
:100068000313B0003008F90000300A128A1107257E
:100078000A128A11013083120313B8000030B90044
:10008800E830F2000330F3000A128A11BB250A1285
:100098008A117729F801373083120313B00030082A
:1000A800F90001300A128A1107250A128A11023052
:1000B80083120313B8000030B900D030F2000730C3
:1000C800F3000A128A11BB250A128A1177290A122B
:1000D8008A11F7250A128A11033083120313B80014
:1000E8000030B900F430F2000130F3000A128A112E
:1000F800BB250A128A117729F8017B308312031372
:10010800B0003008F90000300A128A1107250A12D7
:100118008A11F801593083120313B0003008F9002E
:1001280001300A128A1107250A128A110430831233
:100138000313B8000030B900E830F2000330F300D0
:100148000A128A11BB250A128A117729F8018C3004
:1001580083120313B0003008F90000300A128A1124
:1001680007250A128A11F801153083120313B0000B
:100178003008F90001300A128A1107250A128A117B
:10018800053083120313B8000030B900D030F200F4
:100198000730F3000A128A11BB250A128A1177293F
:1001A800F801263083120313B0003008F90001303B
:1001B8000A128A1107250A128A11063083120313BC
:1001C800B8000030B900E830F2000330F3000A123A
:1001D8008A11BB250A128A117729F801483083123F
:1001E8000313B0003008F90001300A128A110725FC
:1001F8000A128A110A3083120313B8000030B900BA
:10020800DC30F2000530F3000A128A11BB250A120D
:100218008A117729F8016A3083120313B000300875
:10022800F90000300A128A1107250A128A11F8010A
:100238009D3083120313B0003008F90001300A1210
:100248008A1107250A128A1183120313B401B50112
:10025800B201B3010130B6000030B7000B30B8006E
:100268000030B90077293508B3003408B2003708E0
:10027800B5003608B40032083407B600330803184E
:10028800330A3507B700B71F4A294B294E29B80149
:10029800B90177290C30B8000030B90077297729DF
:1002A8000B30B0003008A4003708A6003608A500B7
:1002B8000530B1003108A70001300A128A11A321C4
:1002C8000A128A110B3083120313B8000030B900E8
:1002D800E830F2000330F3000A128A11BB250A1233
:1002E8008A1177297729831203133908003A0319E9
:1002F8007E2977293808003A03193128013A031969
:100308004E28033A03196B28013A03198028073A43
:100318000319AA28013A0319D428033A0319F12822
:100328000C3A03190E29013A03193729073A031918
:1003380054297729772977290A128A110C288312D8
:100348000313AB00A61BA929AB290130AC29003047
:10035800A8002808AD002D080319B329B429BA2923
:10036800A509A609A50A0319A60ABA292408A800F6
:100378002808F5002B080A128A11D2250A128A11B8
:10038800103083120313AE002730AF000530A800E9
:100398002808AC00FE29831203132F08F3002E0847
:1003A800F2002608F5002508F4000A128A11312403
:1003B8000A128A1172087304031DE329E429182A12
:1003C800013083120313AC02EA29182A0A30F2001A
:1003D8000030F3002F08F5002E08F4000A128A11E5
:1003E80031240A128A11730883120313AF007208AA
:1003F800AE00FE292F08803AFF0080307F02031DDF
:10040800072A01302E0203180A2A0B2ACF29182A94
:10041800182A20300A128A113E250A128A11013040
:1004280083120313A702182A831203132C082D071B
:10043800A800A901A90D2908803AAA0080302A023B
:10044800031D282A2708280203182B2A2C2A362AB3
:1004580002308312031327020318332A342A0D2A81
:10046800362A362A831203132D0803193C2A3D2AFB
:10047800442A2D300A128A113E250A128A11442A6A
:10048800831203132F08F3002E08F2002608F50044
:100498002508F4000A128A1131240A128A117208F6
:1004A800303E0A128A113E250A128A11831203135A
:1004B8002F08F3002E08F2002608F5002508F4009E
:1004C8000A128A11A4240A128A11730883120313C8
:1004D800A6007208A5000A30F2000030F3002F08C9
:1004E800F5002E08F4000A128A1131240A128A1122
:1004F800730883120313AF007208AE002F08803A06
:10050800FF0080307F02031D8B2A01302E02031862
:0A0518008E2A8F2A442A902A080038
:1006000003308A000408840A8207003443346F34BC
:100610006E347434613464346F3472343A34203458
:10062000203420342034203420342034203420342A
:10063000203400346C343A3420346C3469346E34F1
:100640006834613420342034203420342034203481
:1006500020342034003463343A34203463346F342B
:100660006C3475346E3461342034203420342034BA
:1006700020342034203400342034203420342034FA
:100680004834443434343434373438343034203417
:1006900020342034203420340034733474347234E1
:1006A0003A34203473347434723469346E346734B9
:1006B00020342034203420342034003420342034BA
:1006C00069346E3469346334693461346C34693448
:1006D0007A346134203420342034203400342034FF
:1006E000203444346934733470346C346134793474
:1006F00020344C3443344434203420342034003407
:10070000203464346934733470344C3443344434A6
:100710005F3469346E3469347434283429342034B5
:10072000003464346934733470344C3443344434A6
:1007300028346C342C3463342C3473347434723471
:100740002934003447345534533454344134563406
:100750004F343A34203420342034203420342034B0
:100760000034F4008312031308117408F2000430FB
:100770000310F20CFF3E031DB82B7208F300F30EBA
:10078000080873060F39730688008811740303196B
:10079000CA2BCB2BD22B02307406031DD02BD12BAE
:1007A000DC2BD22B0330F3009730F200F20BD62B68
:1007B000F30BD62BDB2BE12B0D30F200F20BDE2BF3
:1007C000E12B831203138815F0307405F2002030FA
:1007D0007206031DEC2BED2B072C08117408F20098
:1007E00004300310F20CFF3E031DF12B7208F300DE
:1007F000F30E080873060F397306880088110D3050
:10080000F200F20B012C831203138815072C081138
:1008100074080F39F200F20E080872060F397206DA
:100820008800881174030319162C172C1E2C023013
:100830007406031D1C2C1D2C282C1E2C0330F300C9
:100840009730F200F20B222CF30B222C272C2D2CAC
:100850000D30F200F20B2A2C2D2C83120313881575
:10086000080083120313A101F31F372C382C402CEE
:10087000F209F309F20A0319F30AA101A10A402CB3
:10088000F51F432C442C4E2CF409F509F40A0319E6
:10089000F50A0130F6007608A1064E2CA201A3014C
:1008A000720873040319552C562C932CA001A00A2E
:1008B000652C01300310F20DF30DFF3E031D5A2C81
:1008C0000130F6007608A007652CF31F682C692C10
:1008D000592C6B2C6B2C01300310A20DA30DFF3E85
:1008E000031D6C2C73087502031D782C72087402AA
:1008F000031C7B2C7C2C842C7208F4027308031CD0
:10090000F503F5022214842C01300310F30CF20CD1
:10091000FF3E031D852C0130A002031D902C912C5D
:100920006B2C932C932C21080319972C982C9E2C1C
:10093000A209A309A20A0319A30A9E2C2308F30003
:100940002208F200A32C0800F801F51FA82CA92CFE
:10095000B12CF409F509F40A0319F50AF801F80AAB
:10096000B12CF31FB42CB52CBB2CF209F309F20AFD
:100970000319F30ABB2C720873040319C02CC12C91
:10098000F62CF701F70AD02C01300310F20DF30D0D
:10099000FF3E031DC52C0130F6007608F707D02C6A
:1009A000F31FD32CD42CC42CD62CD62C7308750250
:1009B000031DDC2C72087402031CDF2CE02CE72CD6
:1009C0007208F4027308031CF503F502E72C0130EA
:1009D0000310F30CF20CFF3E031DE82C0130F7026C
:1009E000031DF32CF42CD62CF62CF62C78080319C6
:1009F000FA2CFB2C012DF409F509F40A0319F50A68
:100A0000012D7508F3007408F200062D080083120A
:100A10000313A2007808A0002008A1007808A00015
:100A20002008F50022080A128A11D2250A128A111A
:100A3000302D790884000A128A1100230A128A11C3
:100A40000A128A113E250A128A11013083120313F9
:100A5000A0002008F9070130A0002008A107302DD0
:100A6000790884000A128A1100230A128A11003AB6
:100A7000031D3B2D3C2D192D3D2D0800F400831244
:100A8000031308157408F20004300310F20CFF3E43
:100A9000031D452D7208F300F30E080873060F3985
:100AA0007306880088110D30F200F20B552D831269
:100AB00003138815081574080F39F200F20E0808A0
:100AC00072060F397206880088110D30F200F20BA1
:100AD000672D83120313881508008B130B1F712DCC
:100AE000722D8F2D0B13643083120313910001308C
:100AF000FA020030031CFB03FB027A087B04031D8F
:100B0000822D832D8F2D1030FA002730FB0001300D
:100B1000BA070318BB0A0030BB078F2D8F2D8B1728
:100B200071088A00700E8300FE0E7E0E0900831687
:100B300003130811881108128812081388138312EE
:100B40000313881528300A128A11B1230A128A1158
:100B50000C300A128A11B1230A128A1101300A12CA
:100B60008A11B1230A128A1102300A128A11B123A2
:100B70000A128A110800CA2D0130F2020030031C4B
:100B8000F303F302C730F400C52DF40BC42DC82DB8
:100B9000C92DCA2D72087304031DCF2DD02DBC2D75
:100BA000D12D0800F7007708F60006300310F60D87
:100BB000FF3E031DD62D750876077F39803E0A1249
:100BC0008A11B1230A128A1108008B13FC30831298
:100BD000031392058730920564309100BA01BB017E
:100BE0001030FA002730FB000B178B17080001307C
:0C0BF0000A128A11B1230A128A110800AF
:04400E00D4E0FFFFFC
:00000001FF
